S00F000070776D5F4C45442E737265638D
S11300000C9436000C9440000C9440000C94400076
S11300100C9440000C9440000C9440000C9440005C
S11300200C9440000C9440000C9440000C9440004C
S11300300C9440000C9440000C9440000C9440003C
S11300400C9440000C9440000C9440000C9440002C
S11300500C9440000C9440000C9440000C9440001C
S11300600C9440000C9440000C94400011241FBEDA
S1130070CFEFD4E0DEBFCDBF0E9442000C94BA00A3
S11300800C9400000E948100D1E0C0E50FEF11E064
S1130090C43621F0C13019F4D12F01C0D02FCD0FB7
S11300A080E00E9499002FEF83ED90E3215080407F
S11300B09040E1F700C000008EE10E9499002FEF0C
S11300C083ED90E3215080409040E1F700C00000B0
S11300D086E40E9499002FEF83ED90E32150804045
S11300E09040E1F700C0000084E60E9499002FEFE1
S11300F083ED90E3215080409040E1F700C0000080
S1130100C7CF569A84B5836084BD85B5877F85BD86
S113011085B5816085BD85B58D7F85BD85B58B7FB2
S113012085BD84B5806884BD85B58F7B85BD789495
S11301300895853678F49FEF899F900111243695B0
S1130140279536952795ABE7B4E10E94AB009695C9
S1130150879587BD0895A29FB001B39FC001A39F57
S1130160700D811D1124911DB29F700D811D1124EC
S10B0170911D0895F894FFCFDE
S9030000FC
