:100000000C9436000C9440000C9440000C9440007A
:100010000C9440000C9440000C9440000C94400060
:100020000C9440000C9440000C9440000C94400050
:100030000C9440000C9440000C9440000C94400040
:100040000C9440000C9440000C9440000C94400030
:100050000C9440000C9440000C9440000C94400020
:100060000C9440000C9440000C94400011241FBEDE
:10007000CFEFD4E0DEBFCDBF0E9442000C948F00D2
:100080000C940000CF93DF9300D0CDB7DEB70E9471
:1000900062008FEF89838FE18A83CE0101960E94EF
:1000A00089002FEF84E39CE0215080409040E1F7ED
:1000B00000C00000F6CF8CB5877F8CBD8CB58B7FE0
:1000C0008CBD089584B18C6284B92A9A0E945B0029
:1000D0008CB580618CBD8CB583608CBD8CB5806423
:1000E0008CBD0895CF93DF931F92CDB7DEB72A98CA
:1000F0009EBD0DB407FEFDCF9EB599838EBD0DB498
:1001000007FEFDCF8EB589832A9A0F90DF91CF919C
:100110000895FC01808191810E9472000895F894F5
:02012000FFCF0F
:00000001FF
