:100000000C9436000C9453000C9453000C94530041
:100010000C9453000C9453000C9453000C94530014
:100020000C9453000C9453000C9453000C94530004
:100030000C9453000C9453000C9453000C945300F4
:100040000C9453000C9453000C945D010C945300D9
:100050000C9453000C9453000C9453000C945300D4
:100060000C9453000C9453000C94530011241FBEA5
:10007000CFEFD4E0DEBFCDBF11E0A0E0B1E0EAE613
:10008000F4E002C005900D92A031B107D9F721E04C
:10009000A0E1B1E001C01D92A73BB207E1F70E94C9
:1000A000E0000C9433020C940000ECE7F0E0808157
:1000B0008064808380818083EAE7F0E080818760CC
:1000C00080838081806880830895EAE7F0E0808102
:1000D00080648083808186FDFDCF8091780090913F
:1000E00079000895259A2D980E9455000E94970145
:1000F0007894E1E1F1E083E491E01192E817F907E7
:10010000E1F78AE0809343010895E0911001E13323
:1001100061F4E1E1F1E022E431E0918191932E1765
:100120003F07D9F7809342010895EF5FE0931001F4
:10013000F0E0EF5EFE4F80830895EF92FF920F9301
:100140001F93CF93DF938AE00E94C0018AE00E9450
:10015000C0018AE00E94C0018AE00E94C0018AE0DA
:100160000E94C0010FE010E00F2EF3E4EF2EF1E04B
:10017000FF2EF02D1BC0899190E08017910721F48C
:1001800080E40E94C00103C08EE20E94C001EC1610
:10019000FD0689F780E20E94C00180E20E94C00152
:1001A0008AE00E94C0010150110919F0C1E1D1E0BB
:1001B000E2CFDF91CF911F910F91FF90EF900895C3
:1001C000CF93DF93CDB7DEB76C970FB6F894DEBF51
:1001D0000FBECDBF0E9472008EE0DE011196FD01C0
:1001E000282F11922A95E9F792E09C8320EC31E0C8
:1001F0003A87298721EB31E0F901B383A2831E9668
:10020000FD0111928A95E9F781E08A8B88EC91E0F3
:100210009A8F898FF901B183A08384E091E00E94D5
:1002200003020F2EFFE0DF2EF02DFFEF25EA8EE018
:10023000F15020408040E1F700C000000E946500BE
:100240005C01EFE1FEE43197F1F700C000000E948D
:1002500065007C018FE19EE40197F1F700C000008A
:100260000E9465008C01EFE1FEE43197F1F700C0D8
:1002700000000E946500EA0CFB1C0E0D1F1D800F84
:10028000911F8C01129502950F7001271F70012795
:10029000D09E9001D19E300D1124A1E8B0E80E94BB
:1002A000F401880F892F881F990B91958093B001D5
:1002B0000E9485000E949D00B8CF1F920F920FB63A
:1002C0000F9211242F933F938F939F93AF93BF93DC
:1002D000EF93FF93ECEAF1E0A081B1818091C60039
:1002E0008C93208131818091AA019091AB012817D4
:1002F000390749F48091A8019091A9019093AD012B
:100300008093AC0107C0ECEAF1E080819181019615
:1003100091838083FF91EF91BF91AF919F918F91D6
:100320003F912F910F900FBE0F901F901895109234
:10033000C50088E08093C400E1ECF0E08081886033
:100340008083808180618083808180688083E8EA07
:10035000F1E084E491E09183808387EA91E09093D7
:10036000AB018093AA01808191819093AF0180932A
:10037000AE01808191819093AD018093AC0108958D
:10038000E0ECF0E0908195FFFDCF8093C6000895EA
:10039000AEEAB1E0ECEAF1E02D913C911197808159
:1003A000918128173907C1F3EEEAF1E0A081B1810C
:1003B0008C91408151812091AA013091AB0142176B
:1003C000530749F42091A8013091A9013093AF015E
:1003D0002093AE010895EEEAF1E0208131812F5F94
:1003E0003F4F318320830895A29FB001B39FC00186
:1003F000A39F700D811D1124911DB29F700D811D51
:100400001124911D08950F931F93CF93DF93E091D3
:10041000B301F091B401238121FF1BC08C01D0E016
:10042000C0E0F80181918F016091B3017091B40136
:10043000DB011896ED91FC911997882331F009950D
:10044000892B79F3DFEFCFEFECCF8AE00995892B89
:1004500019F08FEF9FEF02C08D2F9C2FDF91CF916E
:0A0460001F910F910895F894FFCF4B
:10046A0020256400537461727475702E2E2E0D004F
:00000001FF
